{
  "contractName": "ToDoList",
  "abi": [
    {
      "constant": true,
      "inputs": [
        {
          "name": "",
          "type": "address"
        },
        {
          "name": "",
          "type": "uint256"
        }
      ],
      "name": "todos",
      "outputs": [
        {
          "name": "id",
          "type": "uint256"
        },
        {
          "name": "task",
          "type": "string"
        },
        {
          "name": "status",
          "type": "bool"
        }
      ],
      "payable": false,
      "stateMutability": "view",
      "type": "function"
    },
    {
      "constant": true,
      "inputs": [
        {
          "name": "",
          "type": "address"
        },
        {
          "name": "",
          "type": "uint256"
        }
      ],
      "name": "tasks",
      "outputs": [
        {
          "name": "",
          "type": "string"
        }
      ],
      "payable": false,
      "stateMutability": "view",
      "type": "function"
    },
    {
      "constant": true,
      "inputs": [
        {
          "name": "",
          "type": "address"
        },
        {
          "name": "",
          "type": "uint256"
        }
      ],
      "name": "ids",
      "outputs": [
        {
          "name": "",
          "type": "uint256"
        }
      ],
      "payable": false,
      "stateMutability": "view",
      "type": "function"
    },
    {
      "constant": true,
      "inputs": [
        {
          "name": "",
          "type": "uint256"
        }
      ],
      "name": "array_of_bools",
      "outputs": [
        {
          "name": "",
          "type": "bool"
        }
      ],
      "payable": false,
      "stateMutability": "view",
      "type": "function"
    },
    {
      "constant": true,
      "inputs": [
        {
          "name": "",
          "type": "address"
        }
      ],
      "name": "amount",
      "outputs": [
        {
          "name": "",
          "type": "uint256"
        }
      ],
      "payable": false,
      "stateMutability": "view",
      "type": "function"
    },
    {
      "constant": false,
      "inputs": [
        {
          "name": "task",
          "type": "string"
        }
      ],
      "name": "createToDo",
      "outputs": [],
      "payable": false,
      "stateMutability": "nonpayable",
      "type": "function"
    },
    {
      "constant": false,
      "inputs": [
        {
          "name": "id",
          "type": "uint256"
        }
      ],
      "name": "updateToDo",
      "outputs": [],
      "payable": false,
      "stateMutability": "nonpayable",
      "type": "function"
    },
    {
      "constant": false,
      "inputs": [],
      "name": "deposit",
      "outputs": [],
      "payable": true,
      "stateMutability": "payable",
      "type": "function"
    },
    {
      "constant": false,
      "inputs": [],
      "name": "withdraw",
      "outputs": [],
      "payable": true,
      "stateMutability": "payable",
      "type": "function"
    },
    {
      "constant": false,
      "inputs": [],
      "name": "getTodos",
      "outputs": [
        {
          "name": "",
          "type": "uint256[]"
        },
        {
          "name": "",
          "type": "string[]"
        },
        {
          "name": "",
          "type": "bool[]"
        }
      ],
      "payable": false,
      "stateMutability": "nonpayable",
      "type": "function"
    },
    {
      "constant": true,
      "inputs": [],
      "name": "getBalance",
      "outputs": [
        {
          "name": "",
          "type": "uint256"
        }
      ],
      "payable": false,
      "stateMutability": "view",
      "type": "function"
    }
  ],
  "bytecode": "0x608060405234801561001057600080fd5b5061182c806100206000396000f3fe6080604052600436106100b9576000357c0100000000000000000000000000000000000000000000000000000000900480639f20bc92116100815780639f20bc9214610198578063b8c8af36146101d5578063b9f0bf6614610212578063ba1d7ff01461024f578063c33926cb14610278578063d0e30db0146102a5576100b9565b806312065fe0146100be5780633ccfd60b146100e9578063428c1889146100f357806360cf802f146101325780637149d2e41461015b575b600080fd5b3480156100ca57600080fd5b506100d36102af565b6040516100e09190611689565b60405180910390f35b6100f16102ce565b005b3480156100ff57600080fd5b5061011a6004803603610115919081019061125c565b6105ed565b604051610129939291906116a4565b60405180910390f35b34801561013e57600080fd5b5061015960048036036101549190810190611298565b6106c9565b005b34801561016757600080fd5b50610182600480360361017d919081019061125c565b6108c8565b60405161018f91906115e7565b60405180910390f35b3480156101a457600080fd5b506101bf60048036036101ba919081019061125c565b610990565b6040516101cc9190611689565b60405180910390f35b3480156101e157600080fd5b506101fc60048036036101f791908101906112dd565b6109c0565b60405161020991906115cc565b60405180910390f35b34801561021e57600080fd5b5061023960048036036102349190810190611233565b6109f3565b6040516102469190611689565b60405180910390f35b34801561025b57600080fd5b50610276600480360361027191908101906112dd565b610a0b565b005b34801561028457600080fd5b5061028d610ba6565b60405161029c93929190611580565b60405180910390f35b6102ad610f9f565b005b60003073ffffffffffffffffffffffffffffffffffffffff1631905090565b6000600360003373ffffffffffffffffffffffffffffffffffffffff1673ffffffffffffffffffffffffffffffffffffffff16815260200190815260200160002054111515610352576040517f08c379a000000000000000000000000000000000000000000000000000000000815260040161034990611669565b60405180910390fd5b6060600460003373ffffffffffffffffffffffffffffffffffffffff1673ffffffffffffffffffffffffffffffffffffffff1681526020019081526020016000208054806020026020016040519081016040528092919081815260200182805480156103dd57602002820191906000526020600020905b8154815260200190600101908083116103c9575b5050505050905060006001905060008090505b82518110156104ce5760001515600260003373ffffffffffffffffffffffffffffffffffffffff1673ffffffffffffffffffffffffffffffffffffffff1681526020019081526020016000206000600460003373ffffffffffffffffffffffffffffffffffffffff1673ffffffffffffffffffffffffffffffffffffffff1681526020019081526020016000208481548110151561048a57fe5b9060005260206000200154815260200190815260200160002060020160009054906101000a900460ff16151514156104c157600091505b80806001019150506103f0565b5060011515811515141515610518576040517f08c379a000000000000000000000000000000000000000000000000000000000815260040161050f90611649565b60405180910390fd5b60003390508073ffffffffffffffffffffffffffffffffffffffff166108fc600360003373ffffffffffffffffffffffffffffffffffffffff1673ffffffffffffffffffffffffffffffffffffffff168152602001908152602001600020549081150290604051600060405180830381858888f193505050501580156105a2573d6000803e3d6000fd5b506000600360003373ffffffffffffffffffffffffffffffffffffffff1673ffffffffffffffffffffffffffffffffffffffff16815260200190815260200160002081905550505050565b600260205281600052604060002060205280600052604060002060009150915050806000015490806001018054600181600116156101000203166002900480601f0160208091040260200160405190810160405280929190818152602001828054600181600116156101000203166002900480156106ac5780601f10610681576101008083540402835291602001916106ac565b820191906000526020600020905b81548152906001019060200180831161068f57829003601f168201915b5050505050908060020160009054906101000a900460ff16905083565b606060405190810160405280600054815260200183838080601f016020809104026020016040519081016040528093929190818152602001838380828437600081840152601f19601f82011690508083019250505050505050815260200160001515815250600260003373ffffffffffffffffffffffffffffffffffffffff1673ffffffffffffffffffffffffffffffffffffffff1681526020019081526020016000206000805481526020019081526020016000206000820151816000015560208201518160010190805190602001906107a5929190611072565b5060408201518160020160006101000a81548160ff021916908315150217905550905050600460003373ffffffffffffffffffffffffffffffffffffffff1673ffffffffffffffffffffffffffffffffffffffff1681526020019081526020016000206000549080600181540180825580915050906001820390600052602060002001600090919290919091505550600560003373ffffffffffffffffffffffffffffffffffffffff1673ffffffffffffffffffffffffffffffffffffffff1681526020019081526020016000208282909180600181540180825580915050906001820390600052602060002001600090919293909192939091929091925091906108b19291906110f2565b505060008081548092919060010191905055505050565b6005602052816000526040600020818154811015156108e357fe5b90600052602060002001600091509150508054600181600116156101000203166002900480601f0160208091040260200160405190810160405280929190818152602001828054600181600116156101000203166002900480156109885780601f1061095d57610100808354040283529160200191610988565b820191906000526020600020905b81548152906001019060200180831161096b57829003601f168201915b505050505081565b6004602052816000526040600020818154811015156109ab57fe5b90600052602060002001600091509150505481565b6001818154811015156109cf57fe5b9060005260206000209060209182820401919006915054906101000a900460ff1681565b60036020528060005260406000206000915090505481565b6000548111151515610a52576040517f08c379a0000000000000000000000000000000000000000000000000000000008152600401610a4990611609565b60405180910390fd5b6000600260003373ffffffffffffffffffffffffffffffffffffffff1673ffffffffffffffffffffffffffffffffffffffff168152602001908152602001600020600083815260200190815260200160002060020160009054906101000a900460ff169050600015158115151415610b35576001600260003373ffffffffffffffffffffffffffffffffffffffff1673ffffffffffffffffffffffffffffffffffffffff168152602001908152602001600020600084815260200190815260200160002060020160006101000a81548160ff021916908315150217905550610ba2565b6000600260003373ffffffffffffffffffffffffffffffffffffffff1673ffffffffffffffffffffffffffffffffffffffff168152602001908152602001600020600084815260200190815260200160002060020160006101000a81548160ff0219169083151502179055505b5050565b606080606080600460003373ffffffffffffffffffffffffffffffffffffffff1673ffffffffffffffffffffffffffffffffffffffff168152602001908152602001600020805480602002602001604051908101604052809291908181526020018280548015610c3557602002820191906000526020600020905b815481526020019060010190808311610c21575b5050505050905060008090505b8151811015610d55576001600260003373ffffffffffffffffffffffffffffffffffffffff1673ffffffffffffffffffffffffffffffffffffffff1681526020019081526020016000206000600460003373ffffffffffffffffffffffffffffffffffffffff1673ffffffffffffffffffffffffffffffffffffffff16815260200190815260200160002084815481101515610cda57fe5b9060005260206000200154815260200190815260200160002060020160009054906101000a900460ff16908060018154018082558091505090600182039060005260206000209060209182820401919006909192909190916101000a81548160ff021916908315150217905550508080600101915050610c42565b5060606001805480602002602001604051908101604052809291908181526020018280548015610dc957602002820191906000526020600020906000905b82829054906101000a900460ff16151581526020019060010190602082600001049283019260010382029150808411610d935790505b5050505050905060016000610dde9190611172565b600460003373ffffffffffffffffffffffffffffffffffffffff1673ffffffffffffffffffffffffffffffffffffffff168152602001908152602001600020600560003373ffffffffffffffffffffffffffffffffffffffff1673ffffffffffffffffffffffffffffffffffffffff1681526020019081526020016000208282805480602002602001604051908101604052809291908181526020018280548015610ea857602002820191906000526020600020905b815481526020019060010190808311610e94575b5050505050925081805480602002602001604051908101604052809291908181526020016000905b82821015610f8c578382906000526020600020018054600181600116156101000203166002900480601f016020809104026020016040519081016040528092919081815260200182805460018160011615610100020316600290048015610f785780601f10610f4d57610100808354040283529160200191610f78565b820191906000526020600020905b815481529060010190602001808311610f5b57829003601f168201915b505050505081526020019060010190610ed0565b5050505091509450945094505050909192565b6000600360003373ffffffffffffffffffffffffffffffffffffffff1673ffffffffffffffffffffffffffffffffffffffff16815260200190815260200160002054141515611023576040517f08c379a000000000000000000000000000000000000000000000000000000000815260040161101a90611629565b60405180910390fd5b34600360003373ffffffffffffffffffffffffffffffffffffffff1673ffffffffffffffffffffffffffffffffffffffff16815260200190815260200160002060008282540192505081905550565b828054600181600116156101000203166002900490600052602060002090601f016020900481019282601f106110b357805160ff19168380011785556110e1565b828001600101855582156110e1579182015b828111156110e05782518255916020019190600101906110c5565b5b5090506110ee919061119a565b5090565b828054600181600116156101000203166002900490600052602060002090601f016020900481019282601f1061113357803560ff1916838001178555611161565b82800160010185558215611161579182015b82811115611160578235825591602001919060010190611145565b5b50905061116e919061119a565b5090565b50805460008255601f016020900490600052602060002090810190611197919061119a565b50565b6111bc91905b808211156111b85760008160009055506001016111a0565b5090565b90565b60006111cb8235611792565b905092915050565b60008083601f84011215156111e757600080fd5b8235905067ffffffffffffffff81111561120057600080fd5b60208301915083600182028301111561121857600080fd5b9250929050565b600061122b82356117a4565b905092915050565b60006020828403121561124557600080fd5b6000611253848285016111bf565b91505092915050565b6000806040838503121561126f57600080fd5b600061127d858286016111bf565b925050602061128e8582860161121f565b9150509250929050565b600080602083850312156112ab57600080fd5b600083013567ffffffffffffffff8111156112c557600080fd5b6112d1858286016111d3565b92509250509250929050565b6000602082840312156112ef57600080fd5b60006112fd8482850161121f565b91505092915050565b600061131182611709565b808452602084019350611323836116e2565b60005b828110156113555761133986835161142a565b61134282611735565b9150602086019550600181019050611326565b50849250505092915050565b600061136c82611714565b80845260208401935083602082028501611385856116ef565b60005b848110156113be5783830388526113a0838351611439565b92506113ab82611742565b9150602088019750600181019050611388565b508196508694505050505092915050565b60006113da8261171f565b8084526020840193506113ec836116fc565b60005b8281101561141e57611402868351611571565b61140b8261174f565b91506020860195506001810190506113ef565b50849250505092915050565b6114338161175c565b82525050565b60006114448261172a565b8084526114588160208601602086016117ae565b611461816117e1565b602085010191505092915050565b6000601882527f5468697320746f646f20646f6573206e6f7420657869737400000000000000006020830152604082019050919050565b6000601582527f63616e206f6e6c79206465706f736974206f6e636500000000000000000000006020830152604082019050919050565b6000601f82527f596f75207374696c6c206861766520696e636f6d706c657465207461736b73006020830152604082019050919050565b6000602282527f63616e20776974686472617720696620796f75206861766520612062616c616e60208301527f63650000000000000000000000000000000000000000000000000000000000006040830152606082019050919050565b61157a81611788565b82525050565b6000606082019050818103600083015261159a81866113cf565b905081810360208301526115ae8185611361565b905081810360408301526115c28184611306565b9050949350505050565b60006020820190506115e1600083018461142a565b92915050565b600060208201905081810360008301526116018184611439565b905092915050565b600060208201905081810360008301526116228161146f565b9050919050565b60006020820190508181036000830152611642816114a6565b9050919050565b60006020820190508181036000830152611662816114dd565b9050919050565b6000602082019050818103600083015261168281611514565b9050919050565b600060208201905061169e6000830184611571565b92915050565b60006060820190506116b96000830186611571565b81810360208301526116cb8185611439565b90506116da604083018461142a565b949350505050565b6000602082019050919050565b6000602082019050919050565b6000602082019050919050565b600081519050919050565b600081519050919050565b600081519050919050565b600081519050919050565b6000602082019050919050565b6000602082019050919050565b6000602082019050919050565b60008115159050919050565b600073ffffffffffffffffffffffffffffffffffffffff82169050919050565b6000819050919050565b600061179d82611768565b9050919050565b6000819050919050565b60005b838110156117cc5780820151818401526020810190506117b1565b838111156117db576000848401525b50505050565b6000601f19601f830116905091905056fea265627a7a72305820f51fd58addd2c59c552fcd31260dcd44ae85cb653e18dfa938cd421a46587f7f6c6578706572696d656e74616cf50037",
  "source": "pragma solidity ^0.5.2;\npragma experimental ABIEncoderV2;\n\ncontract ToDoList {\n\n    struct ToDo {\n        uint id;\n        string task;\n        bool status;\n    }\n    \n    uint nextId;\n    bool[] public array_of_bools;\n    mapping(address => mapping(uint => ToDo)) public todos;\n    mapping(address => uint) public amount;\n    mapping(address => uint[]) public ids;\n    mapping(address => string[]) public tasks;\n\n    \n    function createToDo(string calldata task) external {\n        todos[msg.sender][nextId] = ToDo(nextId, task, false);\n        ids[msg.sender].push(nextId);\n        tasks[msg.sender].push(task);\n        nextId++;\n    }\n    \n    function updateToDo(uint id) external {\n        require(id <= nextId, 'This todo does not exist');\n        bool current_status = todos[msg.sender][id].status;\n        if (current_status == false) {\n            todos[msg.sender][id].status = true;\n        } else {\n            todos[msg.sender][id].status = false;\n        }\n    }\n    \n    function deposit() payable public {\n        require(amount[msg.sender] == 0, 'can only deposit once');\n        amount[msg.sender] += msg.value;\n    }\n    \n    function withdraw() payable public {\n        require(amount[msg.sender] > 0, 'can withdraw if you have a balance');\n        uint[] memory array_of_ids = ids[msg.sender];\n        bool validate = true;\n        for (uint i = 0; i < array_of_ids.length; i++) {\n            if (todos[msg.sender][ids[msg.sender][i]].status == false) {\n                validate = false;\n            }\n        }\n        require(validate == true, 'You still have incomplete tasks');\n        address payable receiver = msg.sender;\n        receiver.transfer(amount[msg.sender]);\n        amount[msg.sender] = 0;\n        return;\n    }\n    \n    function getTodos() external returns(uint[] memory, string[] memory, bool[] memory) {\n        uint[] memory array_of_ids = ids[msg.sender];\n        for (uint i = 0; i < array_of_ids.length; i++) {\n            array_of_bools.push(todos[msg.sender][ids[msg.sender][i]].status);\n        }\n        bool[] memory new_array_of_bools = array_of_bools;\n        delete array_of_bools;\n        return (ids[msg.sender], tasks[msg.sender], new_array_of_bools);\n    }\n    \n   function getBalance() view public returns(uint) {\n        return address(this).balance;\n    }\n}",
  "sourcePath": "/Users/danieljonathanschaefer/Desktop/projects/TodoList-Solidity/tests/contracts/ToDoList.sol",
  "compiler": {
    "name": "solc",
    "version": "0.5.2+commit.1df8f40c.Emscripten.clang"
  },
  "schemaVersion": "3.4.3",
  "updatedAt": "2021-11-24T17:02:25.358Z",
  "devdoc": {
    "methods": {}
  },
  "userdoc": {
    "methods": {}
  }
}