{
  "contractName": "ToDoList",
  "abi": [
    {
      "inputs": [
        {
          "internalType": "address",
          "name": "",
          "type": "address"
        }
      ],
      "name": "amount",
      "outputs": [
        {
          "internalType": "uint256",
          "name": "",
          "type": "uint256"
        }
      ],
      "stateMutability": "view",
      "type": "function",
      "constant": true
    },
    {
      "inputs": [
        {
          "internalType": "address",
          "name": "",
          "type": "address"
        },
        {
          "internalType": "uint256",
          "name": "",
          "type": "uint256"
        }
      ],
      "name": "bools",
      "outputs": [
        {
          "internalType": "bool",
          "name": "",
          "type": "bool"
        }
      ],
      "stateMutability": "view",
      "type": "function",
      "constant": true
    },
    {
      "inputs": [
        {
          "internalType": "address",
          "name": "",
          "type": "address"
        },
        {
          "internalType": "uint256",
          "name": "",
          "type": "uint256"
        }
      ],
      "name": "ids",
      "outputs": [
        {
          "internalType": "uint256",
          "name": "",
          "type": "uint256"
        }
      ],
      "stateMutability": "view",
      "type": "function",
      "constant": true
    },
    {
      "inputs": [
        {
          "internalType": "address",
          "name": "",
          "type": "address"
        },
        {
          "internalType": "uint256",
          "name": "",
          "type": "uint256"
        }
      ],
      "name": "tasks",
      "outputs": [
        {
          "internalType": "string",
          "name": "",
          "type": "string"
        }
      ],
      "stateMutability": "view",
      "type": "function",
      "constant": true
    },
    {
      "inputs": [
        {
          "internalType": "address",
          "name": "",
          "type": "address"
        },
        {
          "internalType": "uint256",
          "name": "",
          "type": "uint256"
        }
      ],
      "name": "todos",
      "outputs": [
        {
          "internalType": "uint256",
          "name": "id",
          "type": "uint256"
        },
        {
          "internalType": "string",
          "name": "task",
          "type": "string"
        },
        {
          "internalType": "bool",
          "name": "status",
          "type": "bool"
        }
      ],
      "stateMutability": "view",
      "type": "function",
      "constant": true
    },
    {
      "inputs": [
        {
          "internalType": "string",
          "name": "task",
          "type": "string"
        }
      ],
      "name": "createToDo",
      "outputs": [],
      "stateMutability": "nonpayable",
      "type": "function"
    },
    {
      "inputs": [
        {
          "internalType": "uint256",
          "name": "id",
          "type": "uint256"
        }
      ],
      "name": "updateToDo",
      "outputs": [],
      "stateMutability": "nonpayable",
      "type": "function"
    },
    {
      "inputs": [],
      "name": "deposit",
      "outputs": [],
      "stateMutability": "payable",
      "type": "function",
      "payable": true
    },
    {
      "inputs": [],
      "name": "withdraw",
      "outputs": [],
      "stateMutability": "nonpayable",
      "type": "function"
    },
    {
      "inputs": [],
      "name": "getTodos",
      "outputs": [
        {
          "internalType": "uint256[]",
          "name": "",
          "type": "uint256[]"
        },
        {
          "internalType": "string[]",
          "name": "",
          "type": "string[]"
        },
        {
          "internalType": "bool[]",
          "name": "",
          "type": "bool[]"
        }
      ],
      "stateMutability": "view",
      "type": "function",
      "constant": true
    },
    {
      "inputs": [],
      "name": "getBalance",
      "outputs": [
        {
          "internalType": "uint256",
          "name": "",
          "type": "uint256"
        }
      ],
      "stateMutability": "view",
      "type": "function",
      "constant": true
    }
  ],
  "bytecode": "0x608060405234801561001057600080fd5b50611c73806100206000396000f3fe60806040526004361061009c5760003560e01c80638e7de8b5116100645780638e7de8b5146101885780639f20bc92146101c5578063b9f0bf6614610202578063ba1d7ff01461023f578063c33926cb14610268578063d0e30db0146102955761009c565b806312065fe0146100a15780633ccfd60b146100cc578063428c1889146100e357806360cf802f146101225780637149d2e41461014b575b600080fd5b3480156100ad57600080fd5b506100b661029f565b6040516100c39190611811565b60405180910390f35b3480156100d857600080fd5b506100e16102a7565b005b3480156100ef57600080fd5b5061010a6004803603810190610105919061139f565b6105c4565b6040516101199392919061182c565b60405180910390f35b34801561012e57600080fd5b50610149600480360381019061014491906113df565b610690565b005b34801561015757600080fd5b50610172600480360381019061016d919061139f565b61090f565b60405161017f919061176f565b60405180910390f35b34801561019457600080fd5b506101af60048036038101906101aa919061139f565b6109c8565b6040516101bc9190611754565b60405180910390f35b3480156101d157600080fd5b506101ec60048036038101906101e7919061139f565b610a0b565b6040516101f99190611811565b60405180910390f35b34801561020e57600080fd5b5061022960048036038101906102249190611372565b610a3c565b6040516102369190611811565b60405180910390f35b34801561024b57600080fd5b506102666004803603810190610261919061142c565b610a54565b005b34801561027457600080fd5b5061027d610e86565b60405161028c93929190611708565b60405180910390f35b61029d6110ef565b005b600047905090565b6000600260003373ffffffffffffffffffffffffffffffffffffffff1673ffffffffffffffffffffffffffffffffffffffff1681526020019081526020016000205411610329576040517f08c379a0000000000000000000000000000000000000000000000000000000008152600401610320906117f1565b60405180910390fd5b6000600360003373ffffffffffffffffffffffffffffffffffffffff1673ffffffffffffffffffffffffffffffffffffffff1681526020019081526020016000208054806020026020016040519081016040528092919081815260200182805480156103b457602002820191906000526020600020905b8154815260200190600101908083116103a0575b5050505050905060006001905060005b82518110156104ad5760001515600160003373ffffffffffffffffffffffffffffffffffffffff1673ffffffffffffffffffffffffffffffffffffffff1681526020019081526020016000206000600360003373ffffffffffffffffffffffffffffffffffffffff1673ffffffffffffffffffffffffffffffffffffffff168152602001908152602001600020848154811061046357610462611aec565b5b9060005260206000200154815260200190815260200160002060020160009054906101000a900460ff161515141561049a57600091505b80806104a590611a45565b9150506103c4565b5060011515811515146104f5576040517f08c379a00000000000000000000000000000000000000000000000000000000081526004016104ec906117d1565b60405180910390fd5b3373ffffffffffffffffffffffffffffffffffffffff166108fc600260003373ffffffffffffffffffffffffffffffffffffffff1673ffffffffffffffffffffffffffffffffffffffff168152602001908152602001600020549081150290604051600060405180830381858888f1935050505015801561057a573d6000803e3d6000fd5b506000600260003373ffffffffffffffffffffffffffffffffffffffff1673ffffffffffffffffffffffffffffffffffffffff168152602001908152602001600020819055505050565b6001602052816000526040600020602052806000526040600020600091509150508060000154908060010180546105fa90611a13565b80601f016020809104026020016040519081016040528092919081815260200182805461062690611a13565b80156106735780601f1061064857610100808354040283529160200191610673565b820191906000526020600020905b81548152906001019060200180831161065657829003601f168201915b5050505050908060020160009054906101000a900460ff16905083565b6040518060600160405280600054815260200183838080601f016020809104026020016040519081016040528093929190818152602001838380828437600081840152601f19601f82011690508083019250505050505050815260200160001515815250600160003373ffffffffffffffffffffffffffffffffffffffff1673ffffffffffffffffffffffffffffffffffffffff16815260200190815260200160002060008054815260200190815260200160002060008201518160000155602082015181600101908051906020019061076b9291906111c9565b5060408201518160020160006101000a81548160ff021916908315150217905550905050600360003373ffffffffffffffffffffffffffffffffffffffff1673ffffffffffffffffffffffffffffffffffffffff1681526020019081526020016000206000549080600181540180825580915050600190039060005260206000200160009091909190915055600460003373ffffffffffffffffffffffffffffffffffffffff1673ffffffffffffffffffffffffffffffffffffffff16815260200190815260200160002082829091806001815401808255809150506001900390600052602060002001600090919290919290919290919250919061087192919061124f565b50600560003373ffffffffffffffffffffffffffffffffffffffff1673ffffffffffffffffffffffffffffffffffffffff168152602001908152602001600020600090806001815401808255809150506001900390600052602060002090602091828204019190069091909190916101000a81548160ff02191690831515021790555060008081548092919061090690611a45565b91905055505050565b6004602052816000526040600020818154811061092b57600080fd5b9060005260206000200160009150915050805461094790611a13565b80601f016020809104026020016040519081016040528092919081815260200182805461097390611a13565b80156109c05780601f10610995576101008083540402835291602001916109c0565b820191906000526020600020905b8154815290600101906020018083116109a357829003601f168201915b505050505081565b600560205281600052604060002081815481106109e457600080fd5b9060005260206000209060209182820401919006915091509054906101000a900460ff1681565b60036020528160005260406000208181548110610a2757600080fd5b90600052602060002001600091509150505481565b60026020528060005260406000206000915090505481565b600054811115610a99576040517f08c379a0000000000000000000000000000000000000000000000000000000008152600401610a9090611791565b60405180910390fd5b6000600160003373ffffffffffffffffffffffffffffffffffffffff1673ffffffffffffffffffffffffffffffffffffffff168152602001908152602001600020600083815260200190815260200160002060020160009054906101000a900460ff169050600015158115151415610b7b5760018060003373ffffffffffffffffffffffffffffffffffffffff1673ffffffffffffffffffffffffffffffffffffffff168152602001908152602001600020600084815260200190815260200160002060020160006101000a81548160ff021916908315150217905550610be8565b6000600160003373ffffffffffffffffffffffffffffffffffffffff1673ffffffffffffffffffffffffffffffffffffffff168152602001908152602001600020600084815260200190815260200160002060020160006101000a81548160ff0219169083151502179055505b6000600360003373ffffffffffffffffffffffffffffffffffffffff1673ffffffffffffffffffffffffffffffffffffffff168152602001908152602001600020805480602002602001604051908101604052809291908181526020018280548015610c7357602002820191906000526020600020905b815481526020019060010190808311610c5f575b5050505050905060005b8151811015610e7f5783600360003373ffffffffffffffffffffffffffffffffffffffff1673ffffffffffffffffffffffffffffffffffffffff1681526020019081526020016000208281548110610cd857610cd7611aec565b5b90600052602060002001541415610e6c5760011515600560003373ffffffffffffffffffffffffffffffffffffffff1673ffffffffffffffffffffffffffffffffffffffff1681526020019081526020016000208281548110610d3e57610d3d611aec565b5b90600052602060002090602091828204019190069054906101000a900460ff1615151415610de7576000600560003373ffffffffffffffffffffffffffffffffffffffff1673ffffffffffffffffffffffffffffffffffffffff1681526020019081526020016000208281548110610db957610db8611aec565b5b90600052602060002090602091828204019190066101000a81548160ff021916908315150217905550610e64565b6001600560003373ffffffffffffffffffffffffffffffffffffffff1673ffffffffffffffffffffffffffffffffffffffff1681526020019081526020016000208281548110610e3a57610e39611aec565b5b90600052602060002090602091828204019190066101000a81548160ff0219169083151502179055505b505050610e83565b8080610e7790611a45565b915050610c7d565b5050505b50565b6060806060600360003373ffffffffffffffffffffffffffffffffffffffff1673ffffffffffffffffffffffffffffffffffffffff168152602001908152602001600020600460003373ffffffffffffffffffffffffffffffffffffffff1673ffffffffffffffffffffffffffffffffffffffff168152602001908152602001600020600560003373ffffffffffffffffffffffffffffffffffffffff1673ffffffffffffffffffffffffffffffffffffffff16815260200190815260200160002082805480602002602001604051908101604052809291908181526020018280548015610f9357602002820191906000526020600020905b815481526020019060010190808311610f7f575b5050505050925081805480602002602001604051908101604052809291908181526020016000905b82821015611067578382906000526020600020018054610fda90611a13565b80601f016020809104026020016040519081016040528092919081815260200182805461100690611a13565b80156110535780601f1061102857610100808354040283529160200191611053565b820191906000526020600020905b81548152906001019060200180831161103657829003601f168201915b505050505081526020019060010190610fbb565b505050509150808054806020026020016040519081016040528092919081815260200182805480156110dd57602002820191906000526020600020906000905b82829054906101000a900460ff161515815260200190600101906020826000010492830192600103820291508084116110a75790505b50505050509050925092509250909192565b6000600260003373ffffffffffffffffffffffffffffffffffffffff1673ffffffffffffffffffffffffffffffffffffffff1681526020019081526020016000205414611171576040517f08c379a0000000000000000000000000000000000000000000000000000000008152600401611168906117b1565b60405180910390fd5b34600260003373ffffffffffffffffffffffffffffffffffffffff1673ffffffffffffffffffffffffffffffffffffffff16815260200190815260200160002060008282546111c09190611942565b92505081905550565b8280546111d590611a13565b90600052602060002090601f0160209004810192826111f7576000855561123e565b82601f1061121057805160ff191683800117855561123e565b8280016001018555821561123e579182015b8281111561123d578251825591602001919060010190611222565b5b50905061124b91906112d5565b5090565b82805461125b90611a13565b90600052602060002090601f01602090048101928261127d57600085556112c4565b82601f1061129657803560ff19168380011785556112c4565b828001600101855582156112c4579182015b828111156112c35782358255916020019190600101906112a8565b5b5090506112d191906112d5565b5090565b5b808211156112ee5760008160009055506001016112d6565b5090565b60008135905061130181611c0f565b92915050565b60008083601f84011261131d5761131c611b20565b5b8235905067ffffffffffffffff81111561133a57611339611b1b565b5b60208301915083600182028301111561135657611355611b25565b5b9250929050565b60008135905061136c81611c26565b92915050565b60006020828403121561138857611387611b2f565b5b6000611396848285016112f2565b91505092915050565b600080604083850312156113b6576113b5611b2f565b5b60006113c4858286016112f2565b92505060206113d58582860161135d565b9150509250929050565b600080602083850312156113f6576113f5611b2f565b5b600083013567ffffffffffffffff81111561141457611413611b2a565b5b61142085828601611307565b92509250509250929050565b60006020828403121561144257611441611b2f565b5b60006114508482850161135d565b91505092915050565b600061146583836115ce565b60208301905092915050565b600061147d83836115ec565b905092915050565b600061149183836116ea565b60208301905092915050565b60006114a88261189a565b6114b281856118ed565b93506114bd8361186a565b8060005b838110156114ee5781516114d58882611459565b97506114e0836118c6565b9250506001810190506114c1565b5085935050505092915050565b6000611506826118a5565b61151081856118fe565b9350836020820285016115228561187a565b8060005b8581101561155e578484038952815161153f8582611471565b945061154a836118d3565b925060208a01995050600181019050611526565b50829750879550505050505092915050565b600061157b826118b0565b611585818561190f565b93506115908361188a565b8060005b838110156115c15781516115a88882611485565b97506115b3836118e0565b925050600181019050611594565b5085935050505092915050565b6115d7816119aa565b82525050565b6115e6816119aa565b82525050565b60006115f7826118bb565b6116018185611920565b93506116118185602086016119e0565b61161a81611b34565b840191505092915050565b6000611630826118bb565b61163a8185611931565b935061164a8185602086016119e0565b61165381611b34565b840191505092915050565b600061166b601883611931565b915061167682611b45565b602082019050919050565b600061168e601583611931565b915061169982611b6e565b602082019050919050565b60006116b1601f83611931565b91506116bc82611b97565b602082019050919050565b60006116d4602283611931565b91506116df82611bc0565b604082019050919050565b6116f3816119d6565b82525050565b611702816119d6565b82525050565b600060608201905081810360008301526117228186611570565b9050818103602083015261173681856114fb565b9050818103604083015261174a818461149d565b9050949350505050565b600060208201905061176960008301846115dd565b92915050565b600060208201905081810360008301526117898184611625565b905092915050565b600060208201905081810360008301526117aa8161165e565b9050919050565b600060208201905081810360008301526117ca81611681565b9050919050565b600060208201905081810360008301526117ea816116a4565b9050919050565b6000602082019050818103600083015261180a816116c7565b9050919050565b600060208201905061182660008301846116f9565b92915050565b600060608201905061184160008301866116f9565b81810360208301526118538185611625565b905061186260408301846115dd565b949350505050565b6000819050602082019050919050565b6000819050602082019050919050565b6000819050602082019050919050565b600081519050919050565b600081519050919050565b600081519050919050565b600081519050919050565b6000602082019050919050565b6000602082019050919050565b6000602082019050919050565b600082825260208201905092915050565b600082825260208201905092915050565b600082825260208201905092915050565b600082825260208201905092915050565b600082825260208201905092915050565b600061194d826119d6565b9150611958836119d6565b9250827fffffffffffffffffffffffffffffffffffffffffffffffffffffffffffffffff0382111561198d5761198c611a8e565b5b828201905092915050565b60006119a3826119b6565b9050919050565b60008115159050919050565b600073ffffffffffffffffffffffffffffffffffffffff82169050919050565b6000819050919050565b60005b838110156119fe5780820151818401526020810190506119e3565b83811115611a0d576000848401525b50505050565b60006002820490506001821680611a2b57607f821691505b60208210811415611a3f57611a3e611abd565b5b50919050565b6000611a50826119d6565b91507fffffffffffffffffffffffffffffffffffffffffffffffffffffffffffffffff821415611a8357611a82611a8e565b5b600182019050919050565b7f4e487b7100000000000000000000000000000000000000000000000000000000600052601160045260246000fd5b7f4e487b7100000000000000000000000000000000000000000000000000000000600052602260045260246000fd5b7f4e487b7100000000000000000000000000000000000000000000000000000000600052603260045260246000fd5b600080fd5b600080fd5b600080fd5b600080fd5b600080fd5b6000601f19601f8301169050919050565b7f5468697320746f646f20646f6573206e6f742065786973740000000000000000600082015250565b7f63616e206f6e6c79206465706f736974206f6e63650000000000000000000000600082015250565b7f596f75207374696c6c206861766520696e636f6d706c657465207461736b7300600082015250565b7f63616e20776974686472617720696620796f75206861766520612062616c616e60008201527f6365000000000000000000000000000000000000000000000000000000000000602082015250565b611c1881611998565b8114611c2357600080fd5b50565b611c2f816119d6565b8114611c3a57600080fd5b5056fea2646970667358221220671736263a9da9827c6750c67cd024e1106f2162a2eed322f5546ed848128ab464736f6c63430008050033",
  "immutableReferences": {},
  "source": "// SPDX-License-Identifier: RANDOM_TEXT\npragma solidity ^0.8.5;\n\ncontract ToDoList {\n\n    struct ToDo {\n        uint id;\n        string task;\n        bool status;\n    }\n    \n    uint nextId;\n    // bool[] public array_of_bools;\n    mapping(address => mapping(uint => ToDo)) public todos;\n    mapping(address => uint) public amount;\n    mapping(address => uint[]) public ids;\n    mapping(address => string[]) public tasks;\n    mapping(address => bool[]) public bools;\n\n    \n    function createToDo(string calldata task) external {\n        todos[msg.sender][nextId] = ToDo(nextId, task, false);\n        ids[msg.sender].push(nextId);\n        tasks[msg.sender].push(task);\n        bools[msg.sender].push(false);\n        nextId++;\n    }\n    \n    function updateToDo(uint id) external {\n        require(id <= nextId, 'This todo does not exist');\n        bool current_status = todos[msg.sender][id].status;\n        if (current_status == false) {\n            todos[msg.sender][id].status = true;\n        } else {\n            todos[msg.sender][id].status = false;\n        }\n        uint[] memory array_of_ids = ids[msg.sender];\n        for (uint i = 0; i < array_of_ids.length; i++) {\n            if (ids[msg.sender][i] == id) {\n                if (bools[msg.sender][i] == true) {\n                    bools[msg.sender][i] = false;\n                } else {\n                    bools[msg.sender][i] = true;\n                }\n                return;\n            }\n        }\n    }\n    \n    function deposit() payable public {\n        require(amount[msg.sender] == 0, 'can only deposit once');\n        amount[msg.sender] += msg.value;\n    }\n    \n    function withdraw() public {\n        require(amount[msg.sender] > 0, 'can withdraw if you have a balance');\n        uint[] memory array_of_ids = ids[msg.sender];\n        bool validate = true;\n        for (uint i = 0; i < array_of_ids.length; i++) {\n            if (todos[msg.sender][ids[msg.sender][i]].status == false) {\n                validate = false;\n            }\n        }\n        require(validate == true, 'You still have incomplete tasks');\n        payable(msg.sender).transfer(amount[msg.sender]);\n        amount[msg.sender] = 0;\n        return;\n    }\n    \n    function getTodos() public view returns(uint[] memory, string[] memory, bool[] memory) {\n        return (ids[msg.sender], tasks[msg.sender], bools[msg.sender]);\n    }\n    \n   function getBalance() view public returns(uint) {\n        return address(this).balance;\n    }\n}",
  "sourcePath": "/Users/danieljonathanschaefer/Desktop/projects/TodoList-Solidity/tests/contracts/ToDoList.sol",
  "compiler": {
    "name": "solc",
    "version": "0.8.5+commit.a4f2e591.Emscripten.clang"
  },
  "schemaVersion": "3.4.3",
  "updatedAt": "2021-11-24T20:24:50.712Z",
  "networkType": "ethereum",
  "devdoc": {
    "kind": "dev",
    "methods": {},
    "version": 1
  },
  "userdoc": {
    "kind": "user",
    "methods": {},
    "version": 1
  }
}